:100000000C942A000C9447000C9447000C94470071
:100010000C9447000C9447000C9447000C94610921
:100020000C9447000C9447000C9447000C94470034
:100030000C9447000C9447000C9447000C94470024
:100040000C948C020C9447000C9447000C944700CD
:100050000C94470011241FBECFE5D8E0DEBFCDBF12
:1000600011E0A0E6B0E0E0ECFCE402C005900D92E7
:10007000A431B107D9F717E0A4E1B1E001C01D92A6
:10008000A737B107E1F70E9414230C945E260C9465
:1000900000008FB780688FBF08958FB78F778FBFAD
:1000A00008954130B1F5813099F0813030F08230DF
:1000B000D1F0833009F065C021C02AB381E090E01F
:1000C00002C0880F991F6A95E2F7282B2ABB089572
:1000D00027B381E090E002C0880F991F6A95E2F78C
:1000E000282B27BB089524B381E090E002C0880F3D
:1000F000991F6A95E2F7282B24BB089521B381E06C
:1001000090E002C0880F991F6A95E2F7282B21BB67
:100110000895813099F0813028F08230D9F0833011
:1001200081F524C02AB381E090E002C0880F991FB6
:100130006A95E2F7809582238ABB089527B381E010
:1001400090E002C0880F991F6A95E2F7809582239C
:1001500087BB089524B381E090E002C0880F991F07
:100160006A95E2F78095822384BB089521B381E0EC
:1001700090E002C0880F991F6A95E2F7809582236C
:1001800081BB08954130B1F5813099F0813030F074
:100190008230D1F0833009F065C021C02BB381E0FB
:1001A00090E002C0880F991F6A95E2F7282B2BBBBD
:1001B000089528B381E090E002C0880F991F6A95E6
:1001C000E2F7282B28BB089525B381E090E002C018
:1001D000880F991F6A95E2F7282B25BB089522B353
:1001E00081E090E002C0880F991F6A95E2F7282B02
:1001F00022BB0895813099F0813028F08230D9F007
:10020000833081F524C02BB381E090E002C0880FD9
:10021000991F6A95E2F7809582238BBB089528B3D6
:1002200081E090E002C0880F991F6A95E2F78095FF
:10023000822388BB089525B381E090E002C0880F37
:10024000991F6A95E2F78095822385BB089522B3B2
:1002500081E090E002C0880F991F6A95E2F78095CF
:10026000822382BB089580E060E040E00E9451005C
:1002700080E061E040E00E94510080E060E041E009
:100280000E94C20080E061E041E00E94C200089547
:10029000813091F0813028F08230C9F0833061F5EF
:1002A00021C02BB381E090E002C0880F991F6A95AE
:1002B000E2F728272BBB089528B381E090E002C025
:1002C000880F991F6A95E2F7282728BB089525B360
:1002D00081E090E002C0880F991F6A95E2F7282715
:1002E00025BB089522B381E090E002C0880F991FDA
:1002F0006A95E2F7282722BB08956130A9F481307E
:1003000051F0813028F0823049F08330E9F409C09F
:100310008FEF8ABB08958FEF87BB08958FEF84BB63
:1003200008958FEF81BB0895813049F0813028F026
:10033000823039F0833041F406C01ABA089517BAF2
:10034000089514BA089511BA0895813049F08130A2
:1003500028F0823039F0833041F406C06BBB089539
:1003600068BB089565BB089562BB0895813061F054
:10037000813028F0823069F08330A1F40FC08BB354
:100380004823462B4BBB089588B34823462B48BBD4
:10039000089585B34823462B45BB089582B348236F
:1003A000462B42BB0895813061F0813028F08230C5
:1003B00069F08330A1F40FC08AB34823462B4BBBAE
:1003C000089587B34823462B48BB089584B3482338
:1003D000462B45BB089581B34823462B42BB089565
:1003E000282F813049F0813028F0823039F0833075
:1003F000C9F406C029B305C026B303C023B301C0A6
:1004000020B381E090E0062E02C0880F991F0A9465
:10041000E2F730E08223932302C0959587956A9591
:10042000E2F7089581E090E0062E02C0880F991F40
:100430000A94E2F730E08223932302C095958795D2
:100440006A95E2F70895FA01813049F0813028F089
:10045000823039F0833051F517C02AB303C027B377
:1004600001C024B381E090E0062E02C0880F991FDE
:100470000A94E2F730E08223932302C09595879592
:100480006A95E2F78083089521B381E090E0062E1B
:1004900002C0880F991F0A94E2F730E08223932369
:1004A00002C0959587956A95E2F780830895339AFF
:1004B0000895339808953C983B988330C1F0843078
:1004C00028F4813071F0823070F409C08530A1F0D9
:1004D000853078F0863099F08730B1F412C03A98C0
:1004E00009C03A980AC03A98399A38980DC03A9893
:1004F00009C03A9A3998F9CF3A9A399804C03A9A89
:10050000F3CF3A9A399A389A369A0895349BFECFA7
:1005100024B135B1C90108951F920F920FB60F9201
:1005200011242F933F934F935F936F937F938F93F8
:100530009F93AF93BF93EF93FF93E0911401F091DA
:1005400015010995FF91EF91BF91AF919F918F9107
:100550007F916F915F914F913F912F910F900FBEBF
:100560000F901F9018959093150180931401089592
:10057000349BFECF81E090E00E94D70224B145B1C8
:10058000942F80E030E0822B932B0E940604089584
:100590003F983E9A87B165E040E00E94C200379ADA
:1005A000359A329A319A30983398349A0895DF9276
:1005B000EF92FF920F931F93D82E80E063E040E00C
:1005C0000E94C2004D2D441F4427441F81E064E077
:1005D0000E94C2000D2D10E0A80140745070E6E0AA
:1005E00055954795EA95E1F781E062E00E94C200E7
:1005F000A8014072507075E0559547957A95E1F7DE
:1006000081E061E00E94C200A8014071507064E086
:10061000559547956A95E1F781E060E00E94C20038
:1006200080E062E041E00E94C20030E4E32E3FE15E
:10063000F32EC7010197F1F780E062E040E00E94ED
:10064000C200C7010197F1F7A8014870507023E07C
:10065000559547952A95E1F781E064E00E94C20034
:10066000A80144705070559547955595479581E080
:1006700062E00E94C200027010701595079581E03B
:1006800061E0402F0E94C20081E0D82260E04D2D41
:100690000E94C20080E062E041E00E94C200C70107
:1006A0000197F1F780E062E040E00E94C200C701DC
:1006B0000197F1F71F910F91FF90EF90DF90089550
:1006C000860F0E94D7020895DF92EF92FF920F9358
:1006D0001F93D82E80E063E041E00E94C2004D2DC0
:1006E000441F4427441F81E064E00E94C2000D2D96
:1006F00010E0A8014074507036E0559547953A9542
:10070000E1F781E062E00E94C200A80140725070EF
:1007100025E0559547952A95E1F781E061E00E9433
:10072000C200A8014071507094E0559547959A9584
:10073000E1F781E060E00E94C20080E062E041E019
:100740000E94C20080E4E82E8FE1F82EC7010197D5
:10075000F1F780E062E040E00E94C200C70101972B
:10076000F1F7A80148705070B3E055954795BA95D8
:10077000E1F781E064E00E94C200A801447050707B
:10078000559547955595479581E062E00E94C200D6
:10079000027010701595079581E061E0402F0E946E
:1007A000C20081E0D82260E04D2D0E94C20080E0AE
:1007B00062E041E00E94C200C7010197F1F780E0CA
:1007C00062E040E00E94C200C7010197F1F71F916B
:1007D0000F91FF90EF90DF9008950F931F93CF93A9
:1007E000DF938C01862F0E94D702C0E0D0E0F80191
:1007F000EC0FFD1F80810E9464032196C830D10553
:10080000B1F7DF91CF911F910F910895EF92FF9271
:100810000F931F937B018C018AE0E816F104010518
:10082000110510F48E2DDFC084E6E816F1040105F1
:10083000110550F4C801B7012AE030E040E050E073
:100840000E943326822FC3C088EEE81683E0F806A4
:1008500080E0080780E0180750F4C801B70124E6DB
:1008600030E040E050E00E943326822F9CC080E1BF
:10087000E81687E2F80680E0080780E0180750F4E1
:10088000C801B70128EE33E040E050E00E94332673
:10089000822F75C080EAE81686E8F80681E008072E
:1008A00080E0180750F4C801B70120E137E240E0CA
:1008B00050E00E943326822F4EC080E4E81682E486
:1008C000F8068FE0080780E0180750F4C801B70168
:1008D00020EA36E841E050E00E943326822F27C00C
:1008E00080E8E81686E9F80688E9080780E0180736
:1008F00008F07CC0C801B70120E432E44FE050E0CA
:100900000E943326822F805D0E946403C801B701D4
:1009100020EA36E841E050E00E943326CA01B901DE
:100920002AE030E040E050E00E943326862F805DD0
:100930000E946403C801B70120E137E240E050E0C3
:100940000E943326CA01B9012AE030E040E050E0BD
:100950000E943326862F805D0E946403C801B70180
:1009600028EE33E040E050E00E943326CA01B9018E
:100970002AE030E040E050E00E943326862F805D80
:100980000E946403C801B70124E630E040E050E073
:100990000E943326CA01B9012AE030E040E050E06D
:1009A0000E943326862F805D0E946403C801B70130
:1009B0002AE030E040E050E00E943326CA01B9014D
:1009C0002AE030E040E050E00E943326862F805D30
:1009D0000E946403C801B7012AE030E040E050E023
:1009E0000E943326862F805D0E9464031F910F9121
:1009F000FF90EF9008951F93CF93DF93EC0110E0E9
:100A000003C00E9464031F5FFE01E10FF11D80819E
:100A10008823B9F7DF91CF911F910895EF92FF924C
:100A20000F931F9380E062E041E00E94510080E05C
:100A300063E041E00E94510081E060E041E00E94FB
:100A4000510081E061E041E00E94510081E062E0FC
:100A500041E00E94510081E064E041E00E945100C9
:100A600080E991E020E931E0F9013197F1F7019750
:100A7000D9F781E060E040E00E94C20081E061E0DF
:100A800041E00E94C20081E062E040E00E94C200BA
:100A900081E064E040E00E94C20080E062E041E06A
:100AA0000E94C20040E4E42E4FE1F42EC7010197FA
:100AB000F1F780E062E040E00E94C200C7010197C8
:100AC000F1F788E20E94D70200EA1FE0C80101970F
:100AD000F1F78CE00E94D702C8010197F1F781E09D
:100AE0000E94D702C7010197F1F786E00E94D70262
:100AF00080E80E94D7021F910F91FF90EF90089518
:100B00004F925F926F927F928F929F92AF92BF921D
:100B1000CF92DF92EF92FF920F931F93CF93DF93C9
:100B20004C015B016A0100E0C3E0D0E021E0622EED
:100B3000712C95E0492E84E0582EEE24E394013088
:100B4000F1F0B3010C2E02C0660F771F0A94E2F792
:100B5000609583E047E10E94B60113E0F52CF01A9E
:100B6000642D611B82E00E94F001882331F4F401BE
:100B70001083F501F082F601E082115088F70F5FD3
:100B800021960530E1F683E06FEF47E10E94B60160
:100B9000DF91CF911F910F91FF90EF90DF90CF9059
:100BA000BF90AF909F908F907F906F905F904F908D
:100BB000089582E065E040E00E94510082E064E038
:100BC00040E00E94510082E063E040E00E9451005A
:100BD00082E062E040E00E94510082E065E041E096
:100BE0000E94C20082E064E041E00E94C20082E014
:100BF00063E041E00E94C20082E062E041E00E94C6
:100C0000C20083E067E041E00E94510083E066E0BB
:100C100041E00E94510083E065E041E00E94510004
:100C200083E063E041E00E94510083E067E041E03F
:100C30000E94C20083E066E041E00E94C20083E0BF
:100C400065E041E00E94C20083E063E041E00E9471
:100C5000C2000895FC010FB6F8940F9220813181F3
:100C60006095709562237323718360830F900FBE2C
:100C7000C9010895FC01808191810895BA010E9403
:100C80002A060895CF92DF92EF92FF920F931F935F
:100C9000CF93DF93EC018B0185E0E82EF12CEC0E75
:100CA000FD1E0E948915EF81F88588819981802B2E
:100CB000912B9983888300E010E024C0D280C38008
:100CC00080819181BC016070AC01507028813981B4
:100CD00092FD05C024233523232B31F40FC0242398
:100CE00035232417350751F470FF02C0042B152B50
:100CF000688179817260CF010E94B3178D2D9C2D80
:100D00009C01F901EE15FF05C9F600951095888143
:100D1000998180239123998388830E949B1B8881DA
:100D20009981DF91CF911F910F91FF90EF90DF900C
:100D3000CF900895BA010E9442060895CF93DF93A1
:100D4000EC010E94891506C08F81988560E072E0F1
:100D50000E94B3178A818823B9F70E949B1BCE019A
:100D60000E94B207DF91CF910895AF92BF92CF92C8
:100D7000DF92EF92FF920F931F93CF93DF936C015B
:100D80007B01A42EB22E0E948915F60120813181AB
:100D9000C70182239323BB2021F4892B09F05AC079
:100DA00004C08E159F0509F455C00115110559F4AD
:100DB000E9011BC0C7018095909582239323F6011A
:100DC000918380834AC0AA2019F060E071E002C0DC
:100DD00060E070E0B11074606E297F29C601029650
:100DE000A8010E94DD1FC0E0D0E00E949B1B012BE8
:100DF00029F1882311F40E9464090E94AA1891FD28
:100E00001BC00FB6F8940F92F60180819181970173
:100E100028233923BB2019F4232B19F50BC02E15D9
:100E20003F0541F41EC0E094F094E822F922F60157
:100E3000F182E0820F900FBEEC01D070CE01DF9105
:100E4000CF911F910F91FF90EF90DF90CF90BF90C7
:100E5000AF900895AA2009F0ADCFE90100E010E0BD
:100E6000C4CFAA2001F7E6CFAF92BF92CF92DF9214
:100E7000EF92FF920F931F93CF93DF936C018B013F
:100E80007A0159010E948915F601C081D181C601FC
:100E9000B8010E944206C02BD12BC7018C239D2391
:100EA0008E159F0569F4970120953095F601808194
:100EB00091818223932391838083AA24BB2410C031
:100EC000A114B10451F0B7017560C6010296A501E5
:100ED0000E94DD1FC0E0D0E003C0F601C081D181D7
:100EE0000E949B1BAB28F9F0882311F40E9464092F
:100EF0000E94AA189C0191FD14C00FB6F8940F929D
:100F0000F60120813181C701822393238E159F052D
:100F100031F4E094F094E222F322F182E0820F9027
:100F20000FBEE901D070CE01DF91CF911F910F91DB
:100F3000FF90EF90DF90CF90BF90AF900895CF9348
:100F4000DF938BE090E00E94C207EC01009731F044
:100F5000FC0111921192CF010E94F607CE01DF91A0
:100F6000CF910895089510921701109216010895D7
:100F70002BED35E08091160190911701281B390B5C
:100F8000C9010895CF93DF93EC010E9489158091E8
:100F9000180190911901892B31F48AE191E0909325
:100FA0001901809318012097C9F020911601309102
:100FB0001701CE01820F931F45E08B3D940770F41B
:100FC0002817390758F4C0911801D0911901C20FA0
:100FD000D31F909317018093160102C0C0E0D0E0A8
:100FE0000E949B1BCE01DF91CF910895FC019C01D3
:100FF0002D5F3F4F328321838FEF9FEF9483838355
:10100000368325833087278310820895FC0111865B
:1010100010860895AC01FC01A181B281FB01B3836C
:10102000A28314968D919C91159795838483149631
:10103000ED91FC9115977383628315967C936E9363
:101040001497FB0151874087FA0180818F5F80836D
:101050000895CF93DF939C01EB01488159818FEF75
:101060004F3F580721F4F901A781B0850DC0D90180
:1010700013961296ED91FC911397808191814817F8
:10108000590710F0DF01F5CF1296ED91FC911397FF
:10109000FB83EA83D583C483BD83AC831396DC933F
:1010A000CE93129739872887F90180818F5F8083DB
:1010B000DF91CF910895CF93DF93DC011896CD9106
:1010C000DC91199712964D915C91139714968D911E
:1010D0009C911597FA019583848314962D913C91E8
:1010E0001597F9015383428389819A818A179B0757
:1010F00011F43A83298319961C921E9218978881BD
:10110000815088838881DF91CF910895FC0191E11E
:10111000908322E2229383E38293629372931292EA
:1011200080E88293129282E0829383E0829384E04B
:10113000829385E0829386E0829387E0829388E0C1
:10114000829389E0829380E18293929382E18293F9
:1011500083E1829384E1829385E1829386E18293A5
:1011600087E1829388E1829389E1829380E282938E
:1011700081E28293229383E282934293529386E2A6
:10118000829387E2829388E2829389E2829380E36A
:10119000829381E382933197CF0108951BBC8CE742
:1011A0008ABD8BE08EBD89B7806189BFA091F706AB
:1011B000B091F806CD91CDBFDD91DEBFFF91EF91EB
:1011C000DF91CF91BF91AF919F918F917F916F915F
:1011D0005F914F913F912F911F910F91FF90EF9051
:1011E000DF90CF90BF90AF909F908F907F906F9047
:1011F0005F904F903F902F901F900F900FBE0F90D9
:10120000089581E0089508950F920FB6F8940F9213
:101210001F9211242F923F924F925F926F927F9272
:101220008F929F92AF92BF92CF92DF92EF92FF92F6
:101230000F931F932F933F934F935F936F937F93DE
:101240008F939F93AF93BF93CF93DF93EF93FF93CE
:10125000A091F706B091F8060DB60D920EB60D925C
:101260000E94AE15882311F00E94C616A091F706C1
:10127000B091F806CD91CDBFDD91DEBFFF91EF912A
:10128000DF91CF91BF91AF919F918F917F916F919E
:101290005F914F913F912F911F910F91FF90EF9090
:1012A000DF90CF90BF90AF909F908F907F906F9086
:1012B0005F904F903F902F901F900F900FBE0F9018
:1012C00008950E94040918950F920FB6F8940F9292
:1012D0001F9211242F923F924F925F926F927F92B2
:1012E0008F929F92AF92BF92CF92DF92EF92FF9236
:1012F0000F931F932F933F934F935F936F937F931E
:101300008F939F93AF93BF93CF93DF93EF93FF930D
:10131000A091F706B091F8060DB60D920EB60D929B
:101320000E94C616A091F706B091F806CD91CDBFE8
:10133000DD91DEBFFF91EF91DF91CF91BF91AF9132
:101340009F918F917F916F915F914F913F912F91DD
:101350001F910F91FF90EF90DF90CF90BF90AF90D3
:101360009F908F907F906F905F904F903F902F90C5
:101370001F900F900FBE0F900895FC010FB6F894C8
:101380000F92828D0F900FBE0895FC010FB6F89456
:101390000F92928D0F900FBE838D891B0895FC01D3
:1013A000828D0895FC01828D90E0882309F491E0FC
:1013B000892F0895FC01928D20E0838D981709F400
:1013C00021E0822F0895FC010FB6F8940F92878DCB
:1013D00090A1892B39F4828D882321F470A3678F23
:1013E00081E001C080E00F900FBE0895FC01878D61
:1013F00090A18617970761F4828D882349F40FB670
:10140000F8940F9210A2178E0F900FBE81E00895EE
:1014100080E008950E94B2070895FC01562FA72F7F
:10142000248D2223B9F086819781820F911D9783A5
:101430008683248135818217930720F080819181F2
:1014400097838683448D66817781852F9A2F50E01C
:101450000E94552608950F931F93CF93DF93EC01BD
:101460008A8D882341F00E811F81CE010E940D0AD2
:101470001F830E8381E0DF91CF911F910F9108951B
:10148000EF92FF920F931F93CF93DF93EC017A01BA
:101490001A8D112311F480E01EC00D8D0E940D0ADB
:1014A00011501A8F0F3F81F48885882399F0CE015F
:1014B00008960E940017882369F0E114F10451F0A6
:1014C00081E0F701808307C00E94A015081710F47F
:1014D0000F5F0D8F81E0DF91CF911F910F91FF90F2
:1014E000EF900895DF93CF9300D0CDB7DEB71A8287
:1014F0001982BE016F5F7F4F40E050E00E94400ABA
:1015000089819A810F900F90CF91DF9108950F9369
:101510001F93CF93DF93EC01042F1A8D4C8D44233E
:1015200061F488819981892B09F03FC08C819D816C
:101530000E94F81C1D821C8239C00023B1F48A81EC
:101540009B8150E00E9455268C8D2A813B81280F7B
:10155000311D3B832A838C819D812817390728F10F
:10156000888199819B838A8320C08E819F8150E0EE
:101570000E9455268C8D90E044275527481B590B17
:101580008E819F81840F951F9F838E83288139814F
:101590008217930730F48C819D81840F951F9F8360
:1015A0008E83023011F41111115080E01F5F1A8FE9
:1015B000DF91CF911F910F910895EF92FF920F93BA
:1015C0001F93DF93CF9300D0CDB7DEB79A83898383
:1015D000FC01078D10A1F801928D838D981710F0F2
:1015E000EE2421C0F801F68CC801BE016F5F7F4F69
:1015F00040E00E94870AE82EFFEFFF1669F4F80129
:101600008189882381F0C80141960E9400178823B0
:1016100051F0EE24E39407C00E94A015F81618F4C8
:10162000F394F801F68E8E2D0F900F90CF91DF91ED
:101630001F910F91FF90EF900895EF92FF921F93EB
:10164000CF93DF93EC010FB6F8940F921E8D91E1CA
:10165000E92EF12CEC0EFD1E13C08F8D98A1892B65
:1016600021F0CE010E94DD0A06C08989882351F04D
:10167000C7010E940017882311F00E94A018115082
:1016800011165CF38FEF8E8F0F900FBE0FB6F8948C
:101690000F921D8D88E0E82EF12CEC0EFD1E0BC084
:1016A0008885882351F0C7010E940017882311F014
:1016B0000E94A018115011169CF38FEF8D8F0F9080
:1016C0000FBEDF91CF911F91FF90EF9008958F9201
:1016D0009F92AF92BF92CF92DF92EF92FF920F93C1
:1016E0001F93DF93CF9300D000D00F92CDB7DEB71A
:1016F0007C015B015D834C8341E1C42ED12CC80E7B
:10170000D91E20E08E010F5F1F4F34E0832E912CF5
:101710008C0E9D1E01C021E00FB6F8940F92F701C8
:10172000828D8823B9F006811781C701B5010E9417
:101730000D0AF701178306838189882339F0C601D2
:101740000E940017882311F00E9464090F900FBEB9
:1017500081E054C08C819D81892B21F40F900FBEB4
:1017600080E04CC0222319F4C8010E945D180F903C
:101770000FBE0E9489150FB6F8940F92F701858D60
:101780008F3F09F4158EF701868D8F3F09F4168E71
:101790000F900FBEC801B4010E9468188823F9F4A5
:1017A0000FB6F8940F92F701828D0F900FBE882329
:1017B00081F46C817D81C6010E943420C7010E94A2
:1017C0001D0B0E949B1B882309F0A5CF0E94640972
:1017D000A2CFC7010E941D0B0E949B1B9CCFC7017B
:1017E0000E941D0B0E949B1B0FB6F8940F92F701ED
:1017F000828D0F900FBE882309F08DCF0F900F9030
:101800000F900F900F90CF91DF911F910F91FF904C
:10181000EF90DF90CF90BF90AF909F908F90089502
:101820006F927F928F929F92AF92BF92CF92DF92F0
:10183000FF920F931F93DF93CF9300D000D00F92AE
:10184000CDB7DEB78C015B015D834C8361E1C62EB1
:10185000D12CC80ED91E20E04E010894811C911C89
:1018600054E0652E712C6C0E7D1E01C021E00FB678
:10187000F8940F92F801F28CFF20B1F0C801B50185
:101880000E940D0AFA94F801F28E8085882341F0B7
:10189000C80108960E940017882311F00E9464096D
:1018A0000F900FBE81E054C08C819D81892B21F463
:1018B0000F900FBE80E04CC0222319F4C4010E9497
:1018C0005D180F900FBE0E9489150FB6F8940F9205
:1018D000F801858D8F3F09F4158EF801868D8F3FB5
:1018E00009F4168E0F900FBEC401B3010E94681850
:1018F0008823F9F40FB6F8940F92F801828D0F90B7
:101900000FBE882381F46C817D81C6010E94342042
:10191000C8010E941D0B0E949B1B882309F0A6CFC3
:101920000E946409A3CFC8010E941D0B0E949B1B4B
:101930009DCFC8010E941D0B0E949B1B0FB6F894FF
:101940000F92F801828D0F900FBE882309F08ECF81
:101950000F900F900F900F900F90CF91DF911F91EC
:101960000F91FF90DF90CF90BF90AF909F908F909E
:101970007F906F900895DF93CF9300D0CDB7DEB7FF
:10198000AB011A821982BE016F5F7F4F0E94100C5B
:1019900089819A810F900F90CF91DF910895EF92F6
:1019A000FF921F93CF93DF93EC017B019A8D8B8D78
:1019B000981710F080E024C01E8D9F5F9A8F1F3F04
:1019C000C1F48F8D98A1892B21F0CE010E94DD0AF0
:1019D00007C08989882399F0CE0141960E9400179B
:1019E000882369F0E114F10451F081E0F70180836C
:1019F00007C00E94A015181710F41F5F1E8F81E00A
:101A0000DF91CF911F91FF90EF900895DF92EF92B9
:101A1000FF920F931F93CF93DF93EC017A01022F74
:101A20009A8D8B8D981720F0223011F080E02BC01A
:101A30001E8DDA8CCE01402F0E94870A1F3FE1F4F1
:101A40008F8D98A1892B41F0023011F4DD20D1F463
:101A5000CE010E94DD0A07C08989882399F0CE0152
:101A600041960E940017882369F0E114F10451F0B7
:101A700081E0F701808307C00E94A015181710F4B9
:101A80001F5F1E8F81E0DF91CF911F910F91FF901B
:101A9000EF90DF9008956F927F928F929F92AF9216
:101AA000BF92CF92DF92EF92FF920F931F93DF933B
:101AB000CF9300D000D00F92CDB7DEB78C015B0181
:101AC0005D834C83E22EE8E0CE2ED12CC80ED91EC9
:101AD00020E04E010894811C911C74E0672E712C4B
:101AE0006C0E7D1E01C021E00FB6F8940F92F80134
:101AF000928D838D981718F0F2E0EF1649F5F801F2
:101B0000F28CC801B5014E2D0E94870A282FF801DA
:101B1000878D90A1892B49F0F2E0EF1611F4FF2098
:101B200099F4C8010E94DD0A08C0F8018189882360
:101B300039F0C80141960E940017882329F002C09D
:101B4000222311F00E9464090F900FBE81E04CC067
:101B50008C819D81892B19F40F900FBE44C02223E4
:101B600019F4C4010E945D180F900FBE0E948915E0
:101B70000FB6F8940F92F801858D8F3F09F4158EFA
:101B8000F801868D8F3F09F4168E0F900FBEC401A9
:101B9000B3010E946818882309F50FB6F8940F92D4
:101BA000F801928D0F900FBEF801838D981781F484
:101BB0006C817D81C6010E943420C8010E941D0BEA
:101BC0000E949B1B882309F08ECF0E9464098BCF53
:101BD000C8010E941D0B0E949B1B85CFC8010E945B
:101BE0001D0B0E949B1B80E00F900F900F900F9099
:101BF0000F90CF91DF911F910F91FF90EF90DF90A9
:101C0000CF90BF90AF909F908F907F906F900895EE
:101C10008F929F92AF92BF92DF92EF92FF920F93BB
:101C20001F93DF93CF9300D000D00F92CDB7DEB7D4
:101C30008C017D836C83A1E1EA2EF12CE80EF91E64
:101C400020E0DD245E010894A11CB11CF4E08F2E7D
:101C5000912C8C0E9D1E01C021E00FB6F8940F92BE
:101C6000D8015A968C915A978823F1F081505A9650
:101C70008C935A978D919C91892B29F40E94C218BC
:101C8000F80195838483D80118968C91882341F0BC
:101C9000C80108960E940017882311F00E94640969
:101CA0000F900FBE81E082C08C819D81892B19F439
:101CB0000F900FBE7AC0222319F4C5010E945D184F
:101CC0000F900FBE0E9489150FB6F8940F92F8017D
:101CD000858D8F3F09F4158ED8015E968C915E97A5
:101CE0008F3F11F45E961C920F900FBEC501B40198
:101CF0000E946818882379F50FB6F8940F92F801BE
:101D0000828D0F900FBE882301F5D8018D919C9193
:101D1000892B59F40FB6F8940F92F80184819581BC
:101D20000E94531DD82E0F900FBE6C817D81C7017C
:101D30000E943420C8010E941D0B0E949B1B882317
:101D400009F08ACF0E94640987CFC8010E941D0B49
:101D50000E949B1B81CFC8010E941D0B0E949B1BF0
:101D60000FB6F8940F92D8015A968C910F900FBE2F
:101D7000882309F071CFDD20C9F00FB6F8940F92D7
:101D8000F8018189882311F460E008C0D8015696D3
:101D9000ED91FC91579764E08081681BF801848184
:101DA00095810E94901C0F900FBE80E00F900F90C5
:101DB0000F900F900F90CF91DF911F910F91FF9097
:101DC000EF90DF90BF90AF909F908F900895CF934A
:101DD000DF93EC01E62F009709F44FC02B8D2223EF
:101DE00009F44BC03C8D8FEF9FE7622F70E00E949B
:101DF0001F26832F90E06817790708F43EC00FB6BE
:101E0000F8940F92329FC001112448815981840FA8
:101E1000951F9D838C831A8E5B834A832B8D30E0C4
:101E2000215030408C8D90E0BC01269FC001279F3F
:101E3000900D369F900D1124480F591F5F834E83DC
:101E40008FEF8D8F8E8FEE2361F48885882389F044
:101E5000CE0108960E940017882359F00E94640959
:101E600008C0CE0108960E94F607CE0141960E9456
:101E7000F6070F900FBE81E001C080E0DF91CF91A7
:101E80000895EF92FF920F931F93CF93DF93F82E55
:101E9000E62E882351F18FEF9FE76F2D70E00E94AF
:101EA0001F268E2D90E068177907F8F0EF9CC0018F
:101EB00011242FE78F3D9207C0F481960E94C2073C
:101EC000EC018C01009799F0EE2019F49983888336
:101ED00003C0819699838883FB8EEC8ECE0161E0EE
:101EE0000E94E70E18A21F8E02C000E010E0C80199
:101EF000DF91CF911F910F91FF90EF90089562E0D5
:101F000040E00E94410F0895CF93DF93482F81E076
:101F100060E00E94410FEC01009761F01D821C827D
:101F2000198218821E8260E070E040E050E020E0FC
:101F30000E944B0DCE01DF91CF91089590E08091EA
:101F4000F606882309F491E0892F0895F5E00F2E15
:101F5000F6E01F2EF7E02F2EF8E03F2EF9E04F2E8F
:101F6000FAE05F2EFBE06F2EFCE07F2EFDE08F2E6F
:101F7000FEE09F2EFFE0AF2EF0E1BF2EF1E1CF2E6D
:101F8000F2E1DF2EF3E1EF2EF4E1FF2E05E116E1A1
:101F900027E138E149E15AE16BE17CE18DE19EE125
:101FA000AFE1B0E2E1E2F5E0F0110092F606F6E012
:101FB000F1110092F606F7E0F2110092F606F8E051
:101FC000F3110092F606F9E0F4110092F606FAE039
:101FD000F5110092F606FBE0F6110092F606FCE021
:101FE000F7110092F606FDE0F8110092F606FEE009
:101FF000F9110092F606FFE0FA110092F606F0E100
:10200000FB110092F606F1E1FC110092F606F2E1F6
:10201000FD110092F606F3E1FE110092F606F4E1DE
:10202000FF110092F606F5E1F0130092F606F6E1D4
:10203000F1130092F606F7E1F2130092F606F8E1CA
:10204000F3130092F606F9E1F4130092F606FAE1B2
:10205000F5130092F606FBE1F6130092F606FCE19A
:10206000F7130092F606FDE1F8130092F606FEE182
:10207000F9130092F606FFE1FA130092F606F0E279
:10208000FB130092F606F1E2FE130092F6065ECF15
:10209000F1E00F2EF2E01F2EF3E02F2EF4E03F2EA2
:1020A000F5E04F2EF6E05F2EF7E06F2EF8E07F2E82
:1020B000F9E08F2EFAE09F2EFBE0AF2EFCE0BF2E62
:1020C000FDE0CF2EFEE0DF2EFFE0EF2EF0E1FF2E51
:1020D00001E112E123E134E145E156E167E178E114
:1020E00089E19AE1ABE1BCE1EDE1F1E0F0110092B0
:1020F000F606F2E0F1110092F606F3E0F21100921A
:10210000F606F4E0F3110092F606F5E0F411009201
:10211000F606F6E0F5110092F606F7E0F6110092E9
:10212000F606F8E0F7110092F606F9E0F8110092D1
:10213000F606FAE0F9110092F606FBE0FA110092B9
:10214000F606FCE0FB110092F606FDE0FC110092A1
:10215000F606FEE0FD110092F606FFE0FE11009289
:10216000F606F0E1FF110092F606F1E1F01300929D
:10217000F606F2E1F1130092F606F3E1F213009293
:10218000F606F4E1F3130092F606F5E1F41300927B
:10219000F606F6E1F5130092F606F7E1F613009263
:1021A000F606F8E1F7130092F606F9E1F81300924B
:1021B000F606FAE1F9130092F606FBE1FA13009233
:1021C000F606FCE1FB130092F606FDE1FE13009219
:1021D000F6065ECFEF92FF920F9386EA9FE060E6ED
:1021E00070E045E550E020E030E000E0EE24FF2420
:1021F0000E94C92188E490E165E670E045E550E081
:1022000020E030E00E94C9210F91FF90EF900895E7
:10221000FC016115710511F461E070E08481958124
:102220006817790710F080E008957783668381E06E
:102230000895FC0164817581208131814081518143
:1022400082819381460F571F481B590B80819181D2
:102250002817390789F79A01215030402617370788
:1022600010F0261B370BC9010895FC0144815581EC
:102270002281338180819181240F351F281B390BE6
:102280002417350710F0241B350BC9010895FC01F4
:10229000208131818281938140E08217930709F484
:1022A00041E0842F0895CF93DF93FC01868580FD64
:1022B00003C0C0E0D0E002C0C2E0D0E0CF010E9485
:1022C000191120E0C817D90708F021E0822FDF910B
:1022D000CF910895CF92DF92EF92FF920F93CF9319
:1022E000DF93EC016B018A859B85892B11F480E0DB
:1022F0000FC08A859B8560E020E030E040E050E040
:1023000000E0EE24FF240E94D5181B861A8681E087
:10231000DF91CF910F91FF90EF90DF90CF900895D4
:10232000CF92DF92EF92FF920F93CF93DF93EC0166
:102330006B0188859985892B11F480E00FC0888511
:10234000998560E020E030E040E050E000E0EE24DD
:10235000FF240E94D5181986188681E0DF91CF915D
:102360000F91FF90EF90DF90CF900895AF92BF92C2
:10237000CF92DF92EF92FF920F931F93CF93DF9351
:102380006C018B017A015901DC011496CD91DC912D
:102390001597C21BD30B4C175D0708F4EA01F60131
:1023A000248535852A0D3B1DC801B901AE010E9467
:1023B0005526CE15DF0580F498012C0F3D1FF7013F
:1023C000EC1BFD0BD6011C966C911C971D967C9105
:1023D000C901AF010E94552695012E0D3F1DF60142
:1023E000848195812817390710F0281B390BC90102
:1023F000DF91CF911F910F91FF90EF90DF90CF90E1
:10240000BF90AF900895AF92BF92CF92DF92EF92BC
:10241000FF920F931F93DF93CF9300D0CDB7DEB71A
:102420007C015B016A018901FC0120813181868583
:1024300080FD02C0CA0112C0C701BE016F5F7F4F9D
:1024400042E050E00E94B6119C0189819A810250BD
:102450001040C816D90610F480E090E0801791076C
:1024600008F48C010115110541F0C701B501A8015F
:102470000E94B611F70191838083C8010F900F90DD
:10248000CF91DF911F910F91FF90EF90DF90CF9050
:10249000BF90AF900895AF92BF92CF92DF92EF922C
:1024A000FF920F93CF93DF93EC0169018E8580FD3E
:1024B00003C0A0E0B0E002C0A2E0B0E0EC81FD818A
:1024C0002A813B81888199812E0F3F1F281B390B60
:1024D0002E173F0710F02E1B3F0BA217B30718F063
:1024E000AA24BB2418C0CE010E9403125C010097ED
:1024F00091F08A859B85892B71F08A859B8560E0A8
:1025000020E030E040E050E000E0EE24FF240E94B4
:10251000D5181B861A86C501DF91CF910F91FF90C8
:10252000EF90DF90CF90BF90AF900895DF93CF935F
:1025300000D0CDB7DEB7FC01868580FF1FC0448187
:1025400055812281338180819181240F351F281B81
:10255000390B2417350710F0241B350B23303105B8
:1025600068F020813181CF01BE016F5F7F4F42E073
:1025700050E00E94B61129813A8102C020E030E08B
:10258000C9010F900F90CF91DF910895AF92BF9244
:10259000CF92DF92EF92FF920F931F93CF93DF932F
:1025A0007C016B018A015901DC011496CD91DC910B
:1025B0001597C21BD30B4C175D0708F4EA01F7010E
:1025C000248535852A0D3B1DC901B601AE010E9447
:1025D0005526C017D10780F4F801EC1BFD0B9601BE
:1025E0002C0F3D1FD7011C968C911C971D969C911A
:1025F000B901AF010E9455269501200F311FF70147
:10260000848195812817390710F0281B390BC901DF
:10261000DF91CF911F910F91FF90EF90DF90CF90BE
:10262000BF90AF900895AF92BF92CF92DF92EF929A
:10263000FF920F931F93DF93CF9300D0CDB7DEB7F8
:102640006C015B017A01DC011296ED91FC9113970C
:102650001E968C9180FF13C02017310718F4EE24CA
:10266000FF241DC05A834983C601BE016F5F7F4F9F
:1026700042E050E09F010E94C612FC0104C02417F2
:10268000350708F47901E114F10449F0C601B501F8
:10269000A7019F010E94C612F60193838283C7019E
:1026A0000F900F90CF91DF911F910F91FF90EF90BE
:1026B000DF90CF90BF90AF900895AF92BF92CF922E
:1026C000DF92EF92FF920F931F93CF93DF93EC0172
:1026D0005B018A0169018E8580FD02C07A0105C017
:1026E00082E0E82EF12CE40EF51ECE010E941911B5
:1026F0009C01CE01B501A80187010E9413135C0162
:10270000009731F14C815D812A813B8188819981DB
:10271000240F351F281B390B2417350710F0241BF5
:10272000350B8E819F812817390790F08885998510
:10273000892B71F08885998560E020E030E040E0E9
:1027400050E000E0EE24FF240E94D5181986188678
:10275000C501DF91CF911F910F91FF90EF90DF9016
:10276000CF90BF90AF9008956F927F928F929F927B
:10277000AF92BF92CF92DF92EF92FF920F931F938F
:10278000CF93DF93EC014B013A0169018E8580FD07
:1027900003C0AA24BB2403C092E0A92EB12C2C8133
:1027A0003D81C114D10491F10FB6F8940F920A81C2
:1027B0001B8188819981020F131F081B190B0217B7
:1027C000130710F0021B130BA016B10648F080E0AF
:1027D00090E060E00E94831A0E94A418998788877D
:1027E0000F900FBEA016B10620F180E040E050E04F
:1027F00060E070E000E010E020E030E0EE24FF2434
:102800000E94C91E198618862C813D810A811B8170
:1028100088819981020F131F081B190B02171307D8
:1028200010F0021B130BA016B10618F0CC24DD2407
:102830001FC0CE01B401A30198010E9403126C01D4
:102840000097B1F00E9489158A859B85892B71F0CC
:102850008A859B8560E020E030E040E050E000E0C9
:10286000EE24FF240E94CD1A1B861A860E949B1B11
:10287000C601DF91CF911F910F91FF90EF90DF90F4
:10288000CF90BF90AF909F908F907F906F90089562
:102890002F923F924F925F926F927F928F929F9270
:1028A000AF92BF92CF92DF92EF92FF920F931F935E
:1028B000DF93CF93CDB7DEB727970FB6F894DEBF7F
:1028C0000FBECDBF5C017F836E832A013D832C83C5
:1028D000FC012481358121503040868580FF0BC06A
:1028E00042E0642E712C640C751C2615370548F4E3
:1028F0001D821C8206C02417350710F4390101C05F
:102900003A018C819D81892B09F43DC08E010F5FB6
:102910001F4FC8010E944D1818010FB6F8940F926E
:10292000C5010E9419114C018615970538F580E004
:1029300090E060E00E94831A0E94A418F50193873A
:1029400082870F900FBECC80DD8080E040E050E0B9
:1029500060E070E000E010E020E030E0EE24FF24D2
:102960000E94C91EF50113861286C101BE016C5F6B
:102970007F4F0E946818882381F202C00F900FBE1B
:102980009401892821F4C5010E9419119C01C501F7
:102990006E817F81A20183010E9413136C01009755
:1029A00071F1F501448155812281338180819181CA
:1029B000240F351F281B390B2417350710F0241B53
:1029C000350BF5018681978128173907C0F00E94E1
:1029D0008915F50180859185892B79F08085918510
:1029E00060E020E030E040E050E000E0EE24FF2432
:1029F0000E94CD1AF501118610860E949B1BC6010C
:102A000027960FB6F894DEBF0FBECDBFCF91DF91F2
:102A10001F910F91FF90EF90DF90CF90BF90AF90FC
:102A20009F908F907F906F905F904F903F902F90EE
:102A30000895FC010FB6F8940F9280859185892B3B
:102A4000C9F482859385892BA9F424853585448131
:102A500055816681778196858FE0DF011D928A9589
:102A6000E9F7358724875583448377836683968780
:102A700081E001C080E00F900FBE0895FC018685C3
:102A800081FD04C0CF010E94B20708958FE0DF01ED
:102A90001D928A95E9F70895CF92DF92FF920F93E6
:102AA0001F93CF93DF936C018B01F42E6115710599
:102AB00011F401E010E0C6014096C816D90618F0DE
:102AC000A0E0B0E01DC00E94C207FC01DC0100973D
:102AD000B9F08FE0EF0119928A95E9F71F96B58753
:102AE000A4871F970894C11CD11CD582C482178368
:102AF0000683168681E0F81619F41E96FC921E973E
:102B0000CD01DF91CF911F910F91FF90DF90CF907A
:102B100008958091F9068F5F8093F90608950FB6A6
:102B2000F8940F922091FC063091FD060F900FBE95
:102B3000C90108952091FC063091FD06C901089550
:102B4000809103070895009721F48091F7069091F2
:102B5000F8069C01275E3F4FC9010895EF92FF924E
:102B60000F931F93CF93DF938091F906882309F089
:102B7000FBC00091FC061091FD060F5F1F4F1093E4
:102B8000FD060093FC060115110561F520913F0734
:102B90003091400780914107909142079093400700
:102BA00080933F07309342072093410780910007AD
:102BB0008F5F80930007E0913F07F091400780818D
:102BC000882319F48FEF9FEF09C0E0913F07F09140
:102BD00040070580F681E02D808191819093FF066A
:102BE0008093FE068091FE069091FF060817190754
:102BF00008F4A2C0FF2439E0E32EE0913F07F091F2
:102C000040078081882319F48FEF9FEF0EC0E09179
:102C10003F07F09140070580F681E02DC681D781FE
:102C20008A819B810817190728F49093FF068093E7
:102C3000FE0683C0AA85BB854C815D818E819F8104
:102C4000FA01958384832E813F81F9015383428366
:102C5000BE016E5F7F4F11968D919C9112978617E2
:102C6000970721F412963C932E9311971B861A8690
:102C70008C9181508C93AC89BD891097F9F02E8589
:102C80003F8588899989F901958384834889598981
:102C9000FA01338322839E01245F3F4F11968D9169
:102CA0009C9112978217930721F412965C934E938E
:102CB00011971D8A1C8A8C9181508C939E898091DA
:102CC000FA06891710F49093FA06892F90E0FC0118
:102CD00023E0EE0FFF1F2A95E1F7E80FF91FE75FEA
:102CE000F84FA181B281BD83AC8314968D919C91E4
:102CF00015979F838E831496ED91FC91159773839E
:102D0000628315967C936E931497EE89EE9DF00185
:102D10001124E75FF84FFB87EA8780818F5F80830C
:102D2000E091F706F091F8069E898689891708F0E8
:102D300064CFFF24F39461CFFF24E091F706F09174
:102D4000F806E68989E0E89FF0011124E75FF84F73
:102D50008081823010F0FF24F3948091FB06882359
:102D600069F0FF24F3940AC0809101079091020753
:102D700001969093020780930107FF248F2DDF9126
:102D8000CF911F910F91FF90EF9008958091F906D8
:102D9000882321F081E08093FB0608951092FB06C2
:102DA0002091FA0699E001C02150299FD0011124F9
:102DB000A75FB84F8C918823B9F31196ED91FC91E0
:102DC00012970280F381E02D1296FC93EE931197F7
:102DD000CD010396E817F90731F4828193811296A9
:102DE0009C938E9311971196ED91FC911297868189
:102DF00097819093F8068093F7062093FA0608953A
:102E0000CF93DF93DC011596ED91FC911697C68167
:102E1000D781AC89BD894E855F8588899989FA01FA
:102E20009583848328893989F90153834283AE01CC
:102E3000445F5F4F11968D919C911297841795076F
:102E400021F412963C932E9311971D8A1C8A8C9123
:102E500081508C938091F906882309F055C0AA858A
:102E6000BB854C815D818E819F81FA01958384832E
:102E70002E813F81F90153834283AE014E5F5F4F44
:102E800011968D919C9112978417950721F41296B3
:102E90003C932E9311971B861A868C9181508C93AC
:102EA0009E898091FA06891710F49093FA06892F6B
:102EB00090E0FC0163E0EE0FFF1F6A95E1F7E80F79
:102EC000F91FE75FF84FA181B281BD83AC831496EF
:102ED0008D919C9115979F838E831496ED91FC9113
:102EE00015975383428315965C934E931497EE89FE
:102EF00089E0E89FF0011124E75FF84FFB87EA873C
:102F000080818F5F80831FC0A0914407B0914507E7
:102F1000BF87AE8714968D919C911597998B888B5E
:102F20001496ED91FC9115975383428315965C930B
:102F30004E93149783E497E09D8B8C8B809143078D
:102F40008F5F80934307E091F706F091F8069E8922
:102F50008689891710F080E003C081E08093FB062A
:102F6000DF91CF910895CF93DF93DC0170681196C4
:102F70007C936E9316962D913C9117971896CD9150
:102F8000DC91199712966D917C91139714968D91FF
:102F90009C911597FB019583848314964D915C91C8
:102FA0001597FA017383628389819A818A179B0737
:102FB00011F45A83498319961C921E92189788819E
:102FC00081508883E901AA85BB854C815D818E8112
:102FD0009F81FA01958384830E80DF81C02D5B83FE
:102FE0004A83A9014E5F5F4F11968D919C91129774
:102FF0008417950721F41296DC93CE931197E9017B
:103000001B861A868C9181508C939E898091FA063A
:10301000891710F49093FA06892F90E0FC0173E071
:10302000EE0FFF1F7A95E1F7E80FF91FE75FF84F02
:10303000A181B281F901B583A48314968D919C91ED
:103040001597978386831496ED91FC91159753837A
:10305000428315965C934E931497D9015696EC9142
:10306000569789E0E89FF0011124E75FF84F1B961F
:10307000FC93EE931A9780818F5F8083E091F7062F
:10308000F091F80656969C918689891718F481E08C
:103090008093FB06DF91CF910895FC010FB6F89461
:1030A0000F928091000780838091FC069091FD062D
:1030B000928381830F900FBE0895FC0180910007D9
:1030C00080838091FC069091FD0692838183089510
:1030D000DC01FB010FB6F8940F926091FC06709131
:1030E000FD0611964D915C911297208131818FEFF1
:1030F0002F3F3807E9F0909100078C91981719F04D
:1031000064177507B8F4CB01841B950B82179307DE
:1031100088F4281B390B31832083809100078C931E
:103120008091FC069091FD0612969C938E931197C8
:1031300080E003C01182108281E00F900FBE0895DD
:1031400081E08093FB0608952091F7063091F80600
:10315000C9010895E091F706F091F80684859585F8
:10316000A091F706B091F806E091F706F091F80605
:10317000468924E030E0241B31091D963C932E93B0
:103180001C9708958091F7069091F806892B39F0E5
:10319000E091F706F091F80682A18F5F82A320915B
:1031A000F7063091F806C9010895CF92DF92EF92A9
:1031B000FF920F93CF93DF93EC01E114F10489F0B8
:1031C000E62FF0E0EE0FFF1FEE0FFF1FE80FF91FD5
:1031D00083A194A1A5A1B6A1F70180839183A283C5
:1031E000B383A62FB0E0FE01EA0FFB1F67A182E0C8
:1031F00087A30230D1F0033018F40130C9F505C0BF
:10320000033051F10430A1F523C0FD01EE0FFF1F83
:10321000EE0FFF1FEC0FFD1F83A194A1A5A1B6A186
:10322000822B932BA42BB52B0EC0FD01EE0FFF1F9D
:10323000EE0FFF1FEC0FFD1F83A194A1A5A1B6A166
:103240000196A11DB11D83A394A3A5A3B6A310C08D
:10325000623011F480E09DC0AA0FBB1FAA0FBB1FF4
:10326000AC0FBD1F93962D933D934D935C93969712
:10327000613009F08DC08091F906882309F055C0AE
:10328000AA85BB854C815D818E819F81FA019583E2
:1032900084832E813F81F90153834283AE014E5FC7
:1032A0005F4F11968D919C9112978417950721F489
:1032B00012963C932E9311971B861A868C918150FF
:1032C0008C939E898091FA06891710F49093FA06E0
:1032D000892F90E0FC01A3E0EE0FFF1FAA95E1F714
:1032E000E80FF91FE75FF84FA181B281BD83AC837E
:1032F00014968D919C9115979F838E831496ED91D2
:10330000FC9115975383428315965C934E931497C3
:10331000EE8989E0E89FF0011124E75FF84FFB8711
:10332000EA8780818F5F808321C0A0914407B0919C
:103330004507BF87AE8714968D919C911597998B01
:10334000888BCE010C961496ED91FC911597938382
:10335000828315969C938E93149783E497E09D8BBC
:103360008C8B809143078F5F80934307E091F70632
:10337000F091F8069E898689891750F4C114D1040A
:1033800019F081E0F601808381E08093FB0601C0A3
:1033900081E0DF91CF910F91FF90EF90DF90CF9080
:1033A0000895CF93DF93EC01E62FBA01F0E0DC0142
:1033B000AE0FBF1F97962C91979782E097968C93AC
:1033C000EE0FFF1FEE0FFF1FEC0FFD1F83A194A157
:1033D000A5A1B6A10196A11DB11D83A394A3A5A388
:1033E000B6A3213009F08CC08091F906882309F03A
:1033F00055C0AA85BB854C815D818E819F81FA0174
:10340000958384832E813F81F90153834283AE01EA
:103410004E5F5F4F11968D919C911297841795077F
:1034200021F412963C932E9311971B861A868C9149
:1034300081508C939E898091FA06891710F490939D
:10344000FA06892F90E0FC01A3E0EE0FFF1FAA957A
:10345000E1F7E80FF91FE75FF84FA181B281BD8363
:10346000AC8314968D919C9115979F838E831496AF
:10347000ED91FC9115975383428315965C934E937F
:103480001497EE8989E0E89FF0011124E75FF84F77
:10349000FB87EA8780818F5F808321C0A0914407EA
:1034A000B0914507BF87AE8714968D919C91159773
:1034B000998B888BCE010C961496ED91FC91159703
:1034C0009383828315969C938E93149783E497E05D
:1034D0009D8B8C8B809143078F5F80934307E09196
:1034E000F706F091F8069E898689891748F46115D8
:1034F000710519F081E0FB01808381E08093FB0678
:10350000DF91CF910895009721F48091F706909173
:10351000F8060FB6F8940F92FC01E60FF11D87A193
:10352000823011F080E002C017A281E00F900FBE40
:103530000895EF92FF920F931F9379018A010097EC
:1035400021F48091F7069091F8060FB6F8940F9247
:10355000E62FF0E0EE0FFF1FEE0FFF1FE80FF91F41
:1035600023A134A145A156A183A194A1A5A1B6A1EF
:10357000E094F094009510958E219F21A023B12313
:1035800083A394A3A5A3B6A30F900FBEB901CA014C
:103590001F910F91FF90EF900895EF92FF920F937C
:1035A000CF93DF93EC010FB6F8940F92E114F1047E
:1035B00089F0E62FF0E0EE0FFF1FEE0FFF1FEC0F7C
:1035C000FD1F83A194A1A5A1B6A1F70180839183DA
:1035D000A283B383A62FB0E0FE01EA0FFB1F67A111
:1035E00082E087A30230D1F0033018F40130C9F52E
:1035F00005C0033051F10430A1F523C0FD01EE0FE9
:10360000FF1FEE0FFF1FEC0FFD1F83A194A1A5A1CB
:10361000B6A1822B932BA42BB52B0EC0FD01EE0F70
:10362000FF1FEE0FFF1FEC0FFD1F83A194A1A5A1AB
:10363000B6A10196A11DB11D83A394A3A5A3B6A312
:1036400010C0623011F480E06EC0AA0FBB1FAA0F39
:10365000BB1FAC0FBD1F93962D933D934D935C9371
:103660009697613009F05EC0AA85BB854C815D816B
:103670008E819F81FA01958384832E813F81F90198
:1036800053834283AE014E5F5F4F11968D919C91A3
:1036900012978417950721F412963C932E93119755
:1036A0001B861A868C9181508C939E898091FA0694
:1036B000891710F49093FA06892F90E0FC0133E00B
:1036C000EE0FFF1F3A95E1F7E80FF91FE75FF84F9C
:1036D000A181B281BD83AC8314968D919C91159785
:1036E0009F838E831496ED91FC91159753834283AB
:1036F00015965C934E931497EE8989E0E89FF0014C
:103700001124E75FF84FFB87EA8780818F5F808312
:10371000E091F706F091F8069E898689891710F4E2
:103720000E94640981E00F900FBEDF91CF910F914D
:10373000FF90EF9008951F93CF93DF930FB6F89407
:103740000F928091F90681508093F9068091F906D5
:10375000882309F0C7C080910307882309F4C2C0F9
:10376000C0E0D0E079E061E084C0E0914807F091EA
:103770004907C681D781AC89BD892E853F85888957
:103780009989F9019583848348895989FA0133839A
:1037900022839E01245F3F4F11968D919C91129739
:1037A0008217930721F412965C934E9311971D8A0A
:1037B0001C8A8C9181508C93AA85BB854C815D813C
:1037C0008E819F81FA01958384832E813F81F90147
:1037D00053834283AE014E5F5F4F11968D919C9152
:1037E00012978417950721F412963C932E93119704
:1037F0001B861A868C9181508C939E898091FA0643
:10380000891710F49093FA06892F90E0FC0123E0C9
:10381000EE0FFF1F2A95E1F7E80FF91FE75FF84F5A
:10382000A181B281BD83AC8314968D919C91159733
:103830009F838E831496ED91FC9115975383428359
:1038400015965C934E931497EE89E79FF00111242F
:10385000E75FF84FFB87EA8780818F5F8083E09185
:10386000F706F091F8069E898689981710F0609304
:10387000FB0680914307882309F077CFCD2BB9F061
:10388000E0913F07F09140078081882319F48FEF82
:103890009FEF09C0E0913F07F09140070580F68156
:1038A000E02D808191819093FF068093FE06C09168
:1038B0000107D0910207209769F011E00E94AE1530
:1038C000882311F01093FB062197C1F7109202078D
:1038D000109201078091FB06882321F00E94640961
:1038E00081E001C080E00F900FBEDF91CF911F916A
:1038F00008952091F9062F5F2093F9060FB6F894EA
:103900000F922091010730910207280F391F309341
:103910000207209301070F900FBE0E949B1B089582
:103920000F931F93CF93DF93EC01009709F45BC0D3
:1039300089A1681708F4682F2E89261709F453C047
:103940008AA1813009F04FC06E8B8C859D8597FDD3
:1039500006C084E090E0861B91099D878C8789E0F2
:10396000289FC0011124875F984F2A853B8528171F
:103970003907C9F58E010E5F1F4FC8010E945B0811
:103980009E898091FA06891710F49093FA06892F80
:1039900090E0FC0133E0EE0FFF1F3A95E1F7E80FEE
:1039A000F91FE75FF84FA181B281BD83AC83149604
:1039B0008D919C9115979F838E831496ED91FC9128
:1039C00015971383028315961C930E931497EE8913
:1039D00089E0E89FF0011124E75FF84FFB87EA8751
:1039E00080818F5F8083DF91CF911F910F91089528
:1039F0000F931F93CF93DF93EC01009709F44DC011
:103A00002AA121502AA39E8989A1981709F445C0AB
:103A1000222309F042C08E010E5F1F4FC8010E9491
:103A20005B0829A12E8B84E090E0821B91099D8781
:103A30008C878091FA06821710F42093FA06822F61
:103A400090E0FC0143E0EE0FFF1F4A95E1F7E80F1D
:103A5000F91FE75FF84FA181B281BD83AC83149653
:103A60008D919C9115979F838E831496ED91FC9177
:103A700015971383028315961C930E931497EE8962
:103A800089E0E89FF0011124E75FF84FFB87EA87A0
:103A900080818F5F808381E001C080E0DF91CF91E2
:103AA0001F910F9108950F931F93CF93DF93EC0114
:103AB000009711F420E075C0E091F706F091F80648
:103AC0009E898689981708F062C08C859D8597FD30
:103AD0000BC0E091F706F091F806268984E090E0AB
:103AE000821B91099D878C878E8929E0829FC00166
:103AF0001124875F984F2A853B852817390709F0DD
:103B00003FC08E010E5F1F4FC8010E945B08E0910D
:103B1000F706F091F80696899E8B8091FA06891730
:103B200010F49093FA06892F90E0FC0153E0EE0F19
:103B3000FF1F5A95E1F7E80FF91FE75FF84FA181E2
:103B4000B281BD83AC8314968D919C9115979F8310
:103B50008E831496ED91FC9115971383028315962D
:103B60001C930E931497EE8989E0E89FF0011124CD
:103B7000E75FF84FFB87EA8780818F5F808310C003
:103B8000E091F706F091F80686898E8B09C0E091E6
:103B9000F706F091F80620E099A18689981708F4B5
:103BA00021E0822FDF91CF911F910F9108950F9304
:103BB0001F93CF93DF93EC018091F7069091F80665
:103BC000C817D90709F45DC0209709F45AC00FB689
:103BD000F8940F928A859B858555974009F041C0DE
:103BE0008C899D8927E083349207D9F1892BC9F507
:103BF0003BC09093FA06892F90E0FC0163E0EE0F42
:103C0000FF1F6A95E1F7E80FF91FE75FF84FA18101
:103C1000B281BD83AC8314968D919C9115979F833F
:103C20008E831496ED91FC9115971383028315965C
:103C30001C930E931497EE8989E0E89FF0011124FC
:103C4000E75FF84FFB87EA8780818F5F8083E09191
:103C5000F706F091F8069E898689981710F00E9461
:103C600064090F900FBE0DC08E010E5F1F4FC8017B
:103C70000E945B089E898091FA06891708F4B9CFE3
:103C8000BACFDF91CF911F910F910895FF920F93BB
:103C90001F93CF93DF93EC01F62E0091FC06109159
:103CA000FD068091F7069091F80602960E945B0847
:103CB0008FEFCF3FD807C1F5FF20B1F1A091560794
:103CC000B0915707E091F706F091F806B583A48309
:103CD000E091F706F091F80614968D919C91159756
:103CE000978386838091F7069091F8061496ED915C
:103CF000FC9115970296938382838091F7069091A9
:103D0000F806029615969C938E931497E091F70609
:103D1000F091F80685E597E09387828780915507B3
:103D20008F5F809355072FC0C00FD11FE091F7061A
:103D3000F091F806D383C283C017D10768F480914D
:103D40004107909142076091F7067091F8066E5F07
:103D50007F4F0E94290817C080913F07909140072C
:103D60006091F7067091F8066E5F7F4F0E942908F8
:103D70008091FE069091FF06C817D90720F4D093D2
:103D8000FF06C093FE06DF91CF911F910F91FF9028
:103D900008958F929F92AF92BF92CF92DF92EF924F
:103DA000FF920F931F93CF93DF9348015901E701CF
:103DB0000FB6F8940F92E091F706F091F806E82E0E
:103DC000FF24EE0DFF1D87A1823061F1E091F7061F
:103DD000F091F806C701880F991F880F991FE80F07
:103DE000F91F83A194A1A5A1B6A140955095609516
:103DF000709584239523A623B72383A394A3A5A317
:103E0000B6A3E091F706F091F806EE0DFF1D81E0F4
:103E100087A3C114D10431F0C60161E00E94461E9F
:103E20000E9464090F900FBE0FB6F8940F9220976E
:103E300099F0E091F706F091F806C701880F991FF5
:103E4000880F991FE80FF91F83A194A1A5A1B6A11E
:103E500088839983AA83BB83E091F706F091F806E3
:103E6000EE0DFF1D87A1823011F080E01CC0E091B3
:103E7000F706F091F806C701880F991F880F991F60
:103E8000E80FF91F83A194A1A5A1B6A180949094F5
:103E9000A094B09488219921AA21BB2183A394A343
:103EA000A5A3B6A381E0E091F706F091F806EE0D28
:103EB000FF1D17A20F900FBEDF91CF911F910F91A1
:103EC000FF90EF90DF90CF90BF90AF909F908F903A
:103ED00008951F93CF93DF93162F0FB6F8940F9288
:103EE000E091F706F091F806C82FD0E0CE01880FD8
:103EF000991F880F991FE80FF91F83A194A1A5A10D
:103F0000B6A10097A105B10589F4E091F706F091FB
:103F1000F806EC0FFD1F81E087A34115510531F034
:103F2000CA0161E00E94461E0E9464090F900FBE04
:103F30000FB6F8940F92E091F706F091F806CE01D3
:103F4000880F991F880F991FE80FF91F23A134A12B
:103F500045A156A12115310541055105F9F011235F
:103F600059F0E091F706F091F806E80FF91F13A257
:103F700014A215A216A212C0E091F706F091F8065D
:103F80002150304040405040E80FF91F23A334A394
:103F900045A356A32F5F3F4F4F4F5F4FE091F7066A
:103FA000F091F806EC0FFD1F17A20F900FBEB9019C
:103FB000CA01DF91CF911F9108950F931F938C0138
:103FC000CA01E091F706F091F8067068758764877A
:103FD000F801A181B281E091F706F091F806B78768
:103FE000A687E091F706F091F80614962D913C9182
:103FF0001597318B208B2091F7063091F806149697
:10400000ED91FC911597245F3F4F338322832091DC
:10401000F7063091F806245F3F4F15963C932E9398
:104020001497E091F706F091F806158B048BF801D0
:1040300020812F5F208361E00E94461E1F910F9117
:1040400008959C01009769F08091F9068F5F809335
:10405000F906C90160E00E94461E0E949B1B88234E
:1040600011F40E94640908950F931F938B016091CE
:10407000F7067091F806645F7F4F0E942908C80117
:1040800061E00E94461E1F910F910895F8941092CE
:1040900004070E94030908950F931F9321C00FB6D0
:1040A000F8940F92E0915107F09152070681178121
:1040B000C80102960E945B0880910307815080939B
:1040C0000307809107078150809307070F900FBE69
:1040D000F8018789908D0E94B207C8010E94B2073B
:1040E000809107078823D9F6809109078230C0F3B1
:1040F0000E946409F5CFFF920F931F93CF93DF9334
:10410000EC018A859B858555974009F05AC08C89BA
:104110009D8927E08334920709F453C0892B09F065
:1041200050C057C0E091F706F091F8069E89868945
:10413000981710F4FF2405C081E08093FB06FF244C
:10414000F3948E010E5F1F4FC8010E945B089E8989
:104150008091FA06891710F49093FA06892F90E05F
:10416000FC0143E0EE0FFF1F4A95E1F7E80FF91F4E
:10417000E75FF84FA181B281BD83AC8314968D9126
:104180009C9115979F838E831496ED91FC911597C2
:104190001383028315961C930E931497EE8989E07E
:1041A000E89FF0011124E75FF84FFB87EA878081E1
:1041B0008F5F808307C02C9683E497E0BE010E9446
:1041C0000A08FF248F2DDF91CF911F910F91FF904F
:1041D00008958091F906882309F4A4CFECCF0F93BA
:1041E0001F93CF93DF930FB6F8940F92009711F0BF
:1041F000EC0104C0C091F706D091F8068E010E5F65
:104200001F4FC8010E945B088C899D89892B21F072
:10421000CE010C960E945B0885E597E0B8010E94EC
:104220000A088FA1813009F41FA20F900FBE809160
:1042300004078823E1F00FB6F8940F92E0913F074E
:10424000F09140078081882319F48FEF9FEF09C018
:10425000E0913F07F09140070580F681E02D8081D5
:1042600091819093FF068093FE060F900FBE809180
:10427000F7069091F806C817D907A1F480910407B2
:10428000882319F00E9464090DC090915507809110
:104290000307981729F41092F8061092F70602C047
:1042A0000E94C616DF91CF911F910F9108950F9331
:1042B0001F93CF93DF930FB6F8940F92009711F0EE
:1042C000EC0104C0C091F706D091F8068E010E5F94
:1042D0001F4FC8010E945B088C899D89892B21F0A2
:1042E000CE010C960E945B08809108078F5F809337
:1042F00008078091F7069091F806C817D90759F476
:104300008CE497E0B8010E940A08809107078F5F4C
:10431000809307071CC08091030781508093030797
:10432000E0913F07F09140078081882319F48FEFD7
:104330009FEF09C0E0913F07F09140070580F681AB
:10434000E02D808191819093FF068093FE060F906F
:104350000FBE8091F7069091F806C817D90739F07B
:104360008F89988D0E94B207CE010E94B20780917A
:104370000407882349F08091F7069091F806C81742
:10438000D90711F40E946409DF91CF911F910F9119
:1043900008954F925F926F927F928F929F92AF9209
:1043A000BF92CF92DF92EF92FF920F931F93CF9322
:1043B000DF932C015B016A0139014701CA010E94A8
:1043C000C2077C010097A9F088E290E00E94C20732
:1043D000EC01009759F088E2FE0111928A95E9F705
:1043E000F88EEF8AA114B10431F415C0C7010E9400
:1043F000B2078FEFDEC0F501DE0190E080815996B3
:104400008C9359978081882329F09F5F319611966C
:104410009830A1F718A2043008F003E00E8B09A32E
:1044200072E0A72EB12CAC0EBD1EC5010E9406087D
:10443000CE010C960E940608D987C88784E090E0D8
:10444000801B91099D878C87DB8BCA8B0894C108E0
:10445000D108C7018C0D9D1DB201A3010E948608E1
:10446000998388838114910419F0F401D183C08366
:104470000FB6F8940F92809103078F5F8093030724
:104480008091F7069091F806892BD1F5D093F80624
:10449000C093F70680910307813009F041C089E09D
:1044A00097E00E94F60782E197E00E94F6078BE111
:1044B00097E00E94F60784E297E00E94F6076DE21B
:1044C000E62E67E0F62EC7010E94F60706E317E026
:1044D000C8010E94F60783E497E00E94F6078CE487
:1044E00097E00E94F60785E597E00E94F607F092B4
:1044F0004007E0923F07109342070093410710C026
:1045000080910407882361F4E091F706F091F806A2
:1045100096898E89891720F0D093F806C093F70604
:10452000809108078F5F809308079E898091FA0623
:10453000891710F49093FA068E8990E0FC0153E0FD
:10454000EE0FFF1F5A95E1F7E80FF91FE75FF84FED
:10455000A181B281BD83AC8314968D919C911597F6
:104560009F838E831496ED91FC911597B382A2825E
:104570001596BC92AE921497EE8989E0E89FF001FF
:104580001124E75FF84FFB87EA8780818F5F808384
:104590000F900FBE80910407882351F0E091F70639
:1045A000F091F80696898E89981710F40E94640994
:1045B00081E0DF91CF911F910F91FF90EF90DF90FD
:1045C000CF90BF90AF909F908F907F906F905F90B3
:1045D0004F900895EF92FF920F938CE490E26AE679
:1045E00070E045E550E020E030E000E0E5E0EE2E50
:1045F000E7E0FE2E0E94C921813081F4F8948FEF0C
:104600009FEF9093FF068093FE0681E0809304075E
:104610001092FD061092FC060E94CE088091F800D0
:104620000F91FF90EF900895CF92DF92EF92FF925B
:104630000F93DF93CF9300D00F92CDB7DEB70E94D8
:104640000E050E94D90585E061E040E00E94410F1F
:10465000909371078093700784E161E040E00E94CD
:10466000410F90937507809374070E949F07909362
:104670006B0780936A0781E00E94840F90936D0717
:1046800080936C0784E0898385E08A8386E08B834E
:1046900089E695E26FE670E046E950E09E012F5F03
:1046A0003F4F03E0EFE5EE2EE7E0FE2E0E94C9212A
:1046B0008EEF94E26CE770E046E950E09E012E5FD9
:1046C0003F4F02E0B1E6EB2EB7E0FB2E0E94C9217E
:1046D000A3E0CA2ED12CCC0EDD1E83E794E26BE85A
:1046E00070E046E950E0960101E0F3E6EF2EF7E0D6
:1046F000FF2E0E94C9218DE993E268E970E046E946
:1047000050E09601E5E6EE2EE7E0FE2E0E94C9217C
:1047100080916107909162070E94EF20809163076A
:10472000909164070E94EF20809165079091660741
:104730000E94EF200E94EA22FFCFFF920F931F9367
:10474000DF93CF930F92CDB7DEB78E010F5F1F4F70
:10475000FAE0FF2E8091740790917507B8014AE046
:1047600050E00E94100C49814A3299F04F3289F092
:104770004B3279F04D3269F04D3309F45AC08091D3
:1047800067078F9D802D11244053480F4093670782
:10479000A5C0809112018D32C1F18E3230F48A327F
:1047A00049F08B3209F040C023C08F3299F08E342B
:1047B000D9F534C08091670790E020916807309167
:1047C0006907BC01269FC001279F900D369F900D61
:1047D000112416C06091670780916807909169075E
:1047E00070E00E941F2670936907609368071CC0E1
:1047F000209167078091680790916907820F911D4A
:1048000090936907809368070FC020916707809194
:10481000680790916907821B9109F2CF8091670721
:1048200080936807109269074093120110926707FE
:1048300055C0809112018B3241F18C3218F48A32CA
:10484000C9F505C08D3251F18F32A1F510C08091AC
:10485000670790E02091680730916907AC01249FB9
:10486000C001259F900D349F900D11241FC06091B1
:104870006707809168079091690770E00E941F2682
:10488000709369076093680715C02091670780914E
:10489000680790916907820F911D08C020916707F2
:1048A0008091680790916907821B9109909369072D
:1048B00080936807609168077091690780E090E0D5
:1048C0000E94060480915F07909160070E94D71DA7
:1048D00080916507909166070E94EF2088EE93E033
:1048E0000E94212037CF1F93CF93DF9381E00E9456
:1048F000D70280E860E00E94600387EA90E00E94AF
:10490000FB0480EC60E00E94600315E0C0E9D1E0A8
:104910008FE697E06EE677E046E757E00E94800575
:1049200080917607813009F064C080916C07909186
:104930006D076AE070E00E94080E8130F1F420916A
:104940006E0780916F0790E0FC01EE0FFF1FEE0FE6
:10495000FF1FE80FF91FE20FF11DE750FF4F8081A5
:104960000E94640380916C0790916D0760E070E095
:1049700040E050E020E00E944B0D60916F07619F86
:10498000B001112480916E07680F711D67507F4F31
:1049900080917407909175074AE050E020E00E94F2
:1049A0004B0D1092760720916E0780916F0790E073
:1049B000FC01EE0FFF1FEE0FFF1FE80FF91FE20FC4
:1049C000F11DE750FF4F80818D3361F480916507C1
:1049D000909166070E94D71D8091630790916407AC
:1049E0000E94EF2088EE93E0FE013197F1F70197E6
:1049F000D9F788EE93E00E9421208ACFCF92DF92F0
:104A0000EF92FF920F931F93DF93CF930F92CDB747
:104A1000DEB700E010E080E9C82E81E0D82E7E01EC
:104A20000894E11CF11C12C08091700790917107ED
:104A3000B7014AE050E00E94100CE12FF0E0E35F84
:104A4000FE4F99818081981301E01F5F153060F35C
:104A500081E00E94D70210925E07002369F48091E2
:104A60006A0790916B0760E270E00E9442069093A3
:104A70007307809372071AC080E860E00E946003A9
:104A800086EB90E00E94FB0488E893E1F601319701
:104A9000F1F70197D9F781E00E94D70285EC90E009
:104AA0000E94FB0480EC60E00E94600380915F073D
:104AB000909160070E94D71D8091610790916207D5
:104AC0000E94EF2088EE93E00E94212000E010E099
:104AD000ABCFFF920F931F93CF93DF9380E860E0FB
:104AE0000E94600384ED90E00E94FB0480EC60E093
:104AF0000E946003C0E9D1E045E0F42E80916A078E
:104B000090916B0760E270E041E020E00AE010E085
:104B10000E94B506809372079093730785FF1FC0AC
:104B200080E860E00E94600387EE90E00E94FB0452
:104B300080EC60E00E94600388E893E1FE01319719
:104B4000F1F70197D9F780916307909164070E946C
:104B5000D71D80915F07909160070E94EF208FE63C
:104B600097E06EE677E046E757E00E948005809187
:104B70007607813009F05EC01092760780916C074D
:104B800090916D076AE070E00E94080E8130F1F4A8
:104B900020916E0780916F0790E0FC01EE0FFF1FE0
:104BA000EE0FFF1FE80FF91FE20FF11DE750FF4F57
:104BB00080810E94640380916C0790916D0760E092
:104BC00070E040E050E020E00E944B0D80915E07D5
:104BD0008530C8F460916F076F9DB00111248091FA
:104BE0006E07680F711D67507F4F8091700790911D
:104BF00071074AE050E020E00E944B0D80915E0773
:104C00008F5F80935E0788EE93E0FE013197F1F7A6
:104C10000197D9F780915E07853061F48091610733
:104C2000909162070E94D71D80915F079091600765
:104C30000E94EF2088EE93E00E9421205FCFAA1B04
:104C4000BB1B51E107C0AA1FBB1FA617B70710F077
:104C5000A61BB70B881F991F5A95A9F780959095A9
:104C6000BC01CD010895A1E21A2EAA1BBB1BFD01B8
:104C70000DC0AA1FBB1FEE1FFF1FA217B307E4073B
:104C8000F50720F0A21BB30BE40BF50B661F771F93
:104C9000881F991F1A9469F7609570958095909573
:104CA0009B01AC01BD01CF010895FB01DC0102C0F5
:104CB00001900D9241505040D8F70895F894FFCFDD
:104CC0005265673100526567320049444C450047E0
:104CD00045545F50415353574F5244004348454356
:104CE0004B5F50415353574F5244004745545F4523
:104CF00051554154494F4E00534F4C56455F455115
:104D0000554154494F4E00456E746572204571758A
:104D10006174696F6E0057726F6E672050617373B4
:104D2000776F726400456E7465722050617373779B
:104D30006F726400456E74657220746865205061FE
:104D40007373776F726400436F727265637420507F
:104D5000617373776F72640003373839202F3435ED
:104D600036202A313233202D23303D202B35353566
:044D700035354E0087
:00000001FF
